:020000040000FA
:100000000C9462000C948A000C948A000C948A0070
:100010000C948A000C948A000C948A000C948A0038
:100020000C948A000C948A000C948A000C94DA06D2
:100030000C948A000C948A000C948A000C948A0018
:100040000C9490060C948A000C945E060C9438066E
:100050000C948A000C948A000C948A000C948A00F8
:100060000C9496070C948A000000000023002600E0
:10007000290000000008000201000003040700003E
:1000800000000000000000000000250028002B00F8
:1000900000000000240027002A00040404040404D3
:1000A0000404020202020202030303030303010227
:1000B00004081020408001020408102001020408F6
:1000C0001020B50811241FBECFEFD8E0DEBFCDBF92
:1000D00011E0A0E0B1E0ECE9F8E102C005900D927A
:1000E000A439B107D9F723E0A4E9B1E001C01D921A
:1000F000AD33B207E1F710E0C2E6D0E004C02197CB
:10010000FE010E94460CC136D107C9F70E943C0986
:100110000C944C0C0C9400008F929F92AF92BF9263
:10012000FF920F931F93CF93DF93F0903A032BE04E
:100130002F1508F44CC020913C0308E512E0021B87
:10014000110927FD1395000F111F000F111F20919A
:100150003B03C8E8D0E0C21BD10927FDD395CC0FE3
:10016000DD1FCC0FDD1F4E010D2E000CAA08BB08B1
:100170009801012E000C440B550B281939094A0926
:100180005B09DC010E94010C24EB30E040E050E010
:100190000E94D70B820E931EA41EB51E8C169D06C0
:1001A0002CF0E801801691060CF4E4012297CC0FA4
:1001B000DD1F2FB7F8948F2D90E0FC01EE0FFF1F8D
:1001C000E80FF91FE75FFC4FD283C1832FBFDF9198
:1001D000CF911F910F91FF90BF90AF909F908F9004
:1001E000089590E0FC01E255FF4F249186569F4F01
:1001F000FC018491882399F090E0880F991FFC01FD
:10020000E057FF4FA591B491FC01EA57FF4F85914C
:1002100094918FB7F894EC91E22BEC938FBF0895F3
:1002200008950895AF92BF92CF92DF92EF92FF921E
:100230000F931F93CF93DF936C017B018B01040F0E
:10024000151FEB015E01AE18BF08C017D10759F0AA
:100250006991D601ED91FC910190F081E02DC601EC
:100260000995892B79F7C501DF91CF911F910F91E6
:10027000FF90EF90DF90CF90BF90AF900895FC017A
:10028000538D448D252F30E0842F90E0821B930BFB
:10029000541710F0CF96089501970895FC01918DA1
:1002A000828D981761F0A28DAE0FBF2FB11D5D96A4
:1002B0008C91928D9F5F9F73928F90E008958FEF46
:1002C0009FEF0895FC01918D828D981731F0828DFA
:1002D000E80FF11D858D90E008958FEF9FEF089551
:1002E000FC01918D228D892F90E0805C9F4F821BB5
:1002F00091098F739927089580E692E00E9470011A
:1003000021E0892B09F420E0822F089580E090E01D
:10031000892B29F00E947C0181110C940000089522
:10032000FC01A48DA80FB92FB11DA35ABF4F2C916A
:10033000848D90E001968F739927848FA689B78961
:100340002C93A089B1898C91837080648C93938D58
:10035000848D981306C00288F389E02D80818F7DFB
:1003600080830895EF92FF920F931F93CF93DF93B3
:10037000EC0181E0888F9B8D8C8D98131AC0E889E1
:10038000F989808185FF15C09FB7F894EE89FF89B0
:100390006083E889F98980818370806480839FBF4E
:1003A00081E090E0DF91CF911F910F91FF90EF904E
:1003B0000895F62E0B8D10E00F5F1F4F0F7311275E
:1003C000E02E8C8D8E110CC00FB607FCFACFE88999
:1003D000F989808185FFF5CFCE010E949001F1CF90
:1003E000EB8DEC0FFD2FF11DE35AFF4FF0829FB70D
:1003F000F8940B8FEA89FB8980818062CFCFCF93FD
:10040000DF93EC01888D8823B9F0AA89BB89E8893C
:10041000F9898C9185FD03C0808186FD0DC00FB6E2
:1004200007FCF7CF8C9185FFF2CF808185FFEDCF60
:10043000CE010E949001E9CFDF91CF9108958330E2
:1004400081F028F4813099F08230A9F00895873046
:10045000A9F08830C9F08430B1F4809180008F7D9C
:1004600003C0809180008F7780938000089584B5C9
:100470008F7784BD089584B58F7DFBCF8091B000C8
:100480008F778093B00008958091B0008F7DF9CF71
:10049000CF93DF93282F30E0F901EE58FF4F84917E
:1004A000F901E255FF4FD491F901E656FF4FC4918F
:1004B000CC23A1F081110E941F02EC2FF0E0EE0F7F
:1004C000FF1FE859FF4FA591B491EC91ED2381E016
:1004D00090E009F480E0DF91CF91089580E090E012
:1004E000FACF1F93CF93DF93282F30E0F901EE5816
:1004F000FF4F8491F901E255FF4FD491F901E6567F
:10050000FF4FC491CC23A9F0162F81110E941F0226
:10051000EC2FF0E0EE0FFF1FEA57FF4FA591B491CB
:100520008FB7F894EC91111108C0D095DE23DC93BD
:100530008FBFDF91CF911F910895DE2BF8CF3FB78A
:10054000F89480914C0290914D02A0914E02B0918E
:100550004F0226B5A89B05C02F3F19F00196A11D9B
:10056000B11D3FBFBA2FA92F982F8827BC01CD01FD
:10057000620F711D811D911D42E0660F771F881F5C
:10058000991F4A95D1F708958F929F92AF92BF928B
:10059000CF92DF92EF92FF924B015C010E949F028B
:1005A0006B017C010E949F026C197D098E099F09D5
:1005B000683E734081059105A8F321E0821A9108F5
:1005C000A108B10888EEC80E83E0D81EE11CF11C1A
:1005D00081149104A104B10429F7FF90EF90DF90FA
:1005E000CF90BF90AF909F908F9008952FB7F894C1
:1005F000609148027091490280914A0290914B02A9
:100600002FBF089508952091D501260F3327331F5A
:1006100021323105ECF420911E02FC0190E080E0D3
:10062000243069F082E00895A091D5012191AC01B8
:100630004B545E4FA40FB52FB11D2C930196861716
:1006400098F38091D501680F6093D50180E00895FB
:1006500081E0089510921E0281E080931D021092A5
:10066000F80161E082E10E94710261E083E10E9491
:100670007102E9EBF0E080818E7F808380818D7F45
:10068000808388E48093B80085E48093BC0008955B
:10069000CF93DF9391E09093B4018823B9F0C09198
:1006A000B800D091BA008091BC008A7B8093BC00D6
:1006B00060E082E10E94710260E083E10E947102C9
:1006C0000E942A03D093BA00C093B800DF91CF9163
:1006D00008950895E091570280915602E81730F48A
:1006E000F0E0EC56FE4F808190E008958FEF9FEF91
:1006F000089590915702809156022FEF3FEF98177F
:1007000048F4E92FF0E0EC56FE4F208130E09F5F87
:1007100090935702C9010895809156029091570213
:10072000891B990B0895CF92DF92EF92FF920F935E
:100730001F93CF93DF937C01CB018A012091240288
:10074000222389F0EB016B01C40ED51ECC15DD050B
:1007500069F06991D701ED91FC910190F081E02D54
:10076000C7010995F3CF642F0E940303C801DF91ED
:10077000CF911F910F91FF90EF90DF90CF90089550
:10078000CF93DF931F92CDB7DEB769832091240208
:100790002223F9F020915402203258F021E030E079
:1007A000FC013383228390E080E00F90DF91CF91B2
:1007B000089580915502E82FF0E0EB5DFD4F99819F
:1007C00090838F5F809355028093540281E090E084
:1007D000ECCF61E0CE0101960E940303F7CFCF92E8
:1007E000DF92EF92FF920F931F93CF93DF93FC0161
:1007F000C48121E020932402C09345021092550247
:10080000109254028385682B8DEF92E00E94C00302
:10081000D0915402D13208F092C00E949F026B0125
:100820007C0180911E02811165C082E080931E02CE
:1008300081E080931D028FEF80931C0210921B02B7
:10084000D0931A02A5E2B2E0EAEFF1E080E0D8131B
:1008500085C01092F9018091F901CC0FC82BC0938B
:10086000F9018091F801813009F07CC01092F80103
:100870000E949F026B017C018091F9018093BB0073
:100880008091200290912102A0912202B091230236
:10089000892B8A2B8B2B99F00E949F0200912002BA
:1008A0001091210220912202309123026C197D09BE
:1008B0008E099F090617170728073907E0F180916D
:1008C000BC0083FDD9CF85EC8093BC000E949F02C1
:1008D0006B017C0180911E02823009F445C0809139
:1008E0001C028F3F61F180911C02803241F18091A6
:1008F0001C0225C08091200290912102A091220229
:10090000B0912302892B8A2B8B2B09F48ACF0E946A
:100910009F02009120021091210220912202309129
:1009200023026C197D098E099F09061717072807EE
:10093000390708F076CF80911F020E944803109279
:1009400055021092540210922402DF91CF911F9110
:100950000F91FF90EF90DF90CF9008959D9191932C
:100960008F5F75CF85EEB0CF8091200290912102EC
:10097000A0912202B0912302892B8A2B8B2B09F4A0
:10098000A9CF0E949F020091200210912102209184
:100990002202309123026C197D098E099F090617E6
:1009A00017072807390708F095CFC5CF90E080E0FA
:1009B00008950F931F93CF938C01C62F0E94EF03CE
:1009C0006C2F6460C8010E94EF036C2F6B7FC8011D
:1009D0000E94EF0383EC90E00197F1F7CF911F9114
:1009E0000F9108950F931F93CF93DF938C01D62F10
:1009F000C42F607F642B0E94D90480E1D89FB0018E
:100A000011246C2BC801DF91CF911F910F910C9491
:100A1000D90440E061E08EE293E00E94F2048BE3AF
:100A20009FE10197F1F7089541E00E94F20481E00F
:100A300090E00895CF93DF93CDB7DEB728970FB638
:100A4000F894DEBF0FBECDBF98E0E5E0F1E0DE0137
:100A5000119601900D929A95E1F7909137039617B0
:100A600008F46FEF262F30E0220F331F41E050E0F3
:100A70004C0F5D1F240F351FF9016081680F6068FE
:100A800040E08EE293E028960FB6F894DEBF0FBEEA
:100A9000CDBFDF91CF910C94F204FB0101900020B7
:100AA000E9F73197AF01461B570BDC01ED91FC9143
:100AB0000280F381E02D0994CF92DF92EF92FF92B2
:100AC0000F931F93CF93DF93CDB7DEB7A1970FB6E8
:100AD000F894DEBF0FBECDBF6B017C01F7FE3EC0B8
:100AE00041E06DE28EE293E00E94F2042227332778
:100AF000A9012C193D094E095F0919A28E010F5D4C
:100B00001F4F9AE0C92ED12CE12CF12CCA01B9015A
:100B1000A70196010E94090C605DF80162938F01A4
:100B2000211531054105510589F790E080E03097A6
:100B300029F0BF018EE293E00E944D050196A19637
:100B40000FB6F894DEBF0FBECDBFDF91CF911F91DE
:100B50000F91FF90EF90DF90CF900895AC019B0133
:100B600019A28E010F5D1F4F8AE0C82ED12CE12CF7
:100B7000F12CCA01B901A70196010E94090C605D20
:100B8000F80162938F01211531054105510589F75F
:100B900090E080E0309799F2BF018EE293E00E94EE
:100BA0004D05CDCFCF93DF93BC0180E692E00E944C
:100BB0004D05EC016DE371E080E692E00E944D0589
:100BC0008C0F9D1FDF91CF9108950C944D05CF930D
:100BD000DF93EC0161E084E00E941A05BE01DD0FA5
:100BE000880B990B0E945C0561E086E00E941A0563
:100BF00060E471E08EE293E0DF91CF910C94E50523
:100C000085ED8093BC008091200290912102A091FB
:100C10002202B09123020796A11DB11D23E0B695D3
:100C2000A795979587952A95D1F72091BC0024FD2B
:100C300003C010921E02089540912002509121029B
:100C40006091220270912302452B462B472B69F3BA
:100C50000097A105B10541F025E32A95F1F70000C1
:100C60000197A109B109E1CF80911F020C944803BB
:100C70001F920F920FB60F9211242F933F934F9311
:100C80005F936F937F938F939F93AF93BF93EF93F4
:100C9000FF9380E692E00E949001FF91EF91BF9157
:100CA000AF919F918F917F916F915F914F913F9104
:100CB0002F910F900FBE0F901F9018951F920F92BB
:100CC0000FB60F9211242F938F939F93EF93FF935F
:100CD000E0917002F09171028081E0917602F091D2
:100CE000770282FD1BC09081809179028F5F8F73A4
:100CF00020917A02821741F0E0917902F0E0E05A07
:100D0000FD4F958F80937902FF91EF919F918F9185
:100D10002F910F900FBE0F901F9018958081F4CFE8
:100D20001F920F920FB60F9211242F933F938F9320
:100D30009F93AF93BF938091480290914902A091F5
:100D40004A02B0914B023091470223E0230F2D3726
:100D500058F50196A11DB11D2093470280934802CA
:100D600090934902A0934A02B0934B0280914C02A7
:100D700090914D02A0914E02B0914F020196A11D9B
:100D8000B11D80934C0290934D02A0934E02B093FC
:100D90004F02BF91AF919F918F913F912F910F90F3
:100DA0000FBE0F901F90189526E8230F0296A11DE5
:100DB000B11DD2CF1F920F920FB60F9211242F9315
:100DC0003F934F935F936F937F938F939F93AF93D3
:100DD000BF93CF93DF93EF93FF9380914602C0912F
:100DE0002D03D0E087FF24C010928500109284006C
:100DF000809146028F5F8093460280914602082EC2
:100E0000000C990B8C179D0724F4809146028C30BE
:100E1000C4F18091840090918500049680349C49AF
:100E200008F47AC08091840090918500049676C081
:100E300080914602082E000C990B8C179D07C4F672
:100E4000E09146028E2FEE0F990BFC01EE0FFF1F73
:100E5000E80FF91FE75FFC4F808186FFC9CFE09163
:100E600046028E2FEE0F990BFC01EE0FFF1FE80FCD
:100E7000F91FE75FFC4F808160E08F730E94710271
:100E8000B7CF2091840030918500E09146028E2FEB
:100E9000EE0F990BFC01EE0FFF1FE80FF91FE75F44
:100EA000FC4F81819281820F931F909389008093E0
:100EB0008800E09146028E2FEE0F990BFC01EE0F99
:100EC000FF1FE80FF91FE75FFC4F808186FF11C00D
:100ED000E09146028E2FEE0F990BFC01EE0FFF1FE3
:100EE000E80FF91FE75FFC4F808161E08F730E947C
:100EF0007102FF91EF91DF91CF91BF91AF919F91DF
:100F00008F917F916F915F914F913F912F910F90B2
:100F10000FBE0F901F90189580E49CE99093890074
:100F2000809388008FEF80934602E3CF1F920F9249
:100F30000FB60F9211242F933F934F935F936F93AC
:100F40007F938F939F93AF93BF93EF93FF93809182
:100F5000B900887F803609F44AC0F0F5883209F478
:100F6000A7C018F5803109F49BC0B8F4882309F4B0
:100F7000F9C0883009F494C0FF91EF91BF91AF910F
:100F80009F918F917F916F915F914F913F912F91A1
:100F90000F900FBE0F901F901895883109F488C0EC
:100FA000803251F780931C0214C0803409F49DC034
:100FB00040F48033B9F38833F9F680931C0285EC52
:100FC000B0C0803509F485C0883509F496C08834EE
:100FD00099F60E940006D0CF883909F48CC038F504
:100FE000883729F050F4883611F0803729F683E0ED
:100FF00080931E021092F70157C0883809F47BC015
:10100000803919F0803809F0B7CF8091F70180322C
:1010100008F071C0E091F70181E08E0F8093F70135
:101020008091BB00F0E0E952FE4F80833DC0803BE1
:1010300039F0E0F4803A09F479C0883A09F09CCF9D
:1010400084E080931E021092D6011092D501E091A7
:101050005202F091530209958091D50181110FC080
:1010600081E08093D5011092B50109C0803C09F45C
:10107000A6CF883C09F4A3CF883B09F07DCFE0914F
:10108000D60181E08E0F8093D601F0E0EB54FE4F45
:1010900080818093BB009091D6018091D50129C0B9
:1010A0008091F9018093BB0085EC8093BC0064CFF4
:1010B00090911B0280911A02981758F5E0911B023B
:1010C00081E08E0F80931B02F0E0E650FE4F80819E
:1010D000E9CFE0911B0281E08E0F80931B0280918B
:1010E000BB00F0E0E650FE4F808390911B028091A0
:1010F0001A029817C8F285E8D8CFE0911B0281E068
:101100008E0F80931B028091BB00F0E0E650FE4FF3
:10111000808380911D0281115CCF81E08093F80172
:1011200084EA8093BC0010921E0226CF85EC809347
:10113000BC0010921E028091F701803230F4E091E1
:10114000F701F0E0E952FE4F10826091F70170E084
:10115000E0915002F091510287ED91E009951092D3
:10116000F7010ACF10921C0234CF10926302109242
:10117000620288EE93E0A0E0B0E080936402909376
:101180006502A0936602B093670221E131E03093DB
:1011900061022093600225EC30E030936D022093D1
:1011A0006C0224EC30E030936F0220936E0220EC4E
:1011B00030E0309371022093700221EC30E03093E4
:1011C00073022093720222EC30E030937502209378
:1011D000740226EC30E0309377022093760210926E
:1011E000790210927A0210927B0210927C02109285
:1011F00000031092FF028093010390930203A093D7
:101200000303B093040383E291E09093FE02809382
:10121000FD0280912D038C3058F591E0980F90934A
:101220002D0380933A0390E0FC01EE0FFF1FE80FBF
:10123000F91FE75FFC4F88EB9BE09283818310925C
:1012400031031092300385E391E090932F03809354
:101250002E0387E28093320380E18093360382E09D
:10126000809337031092380388E080933903089500
:101270008FEF80933A03E3CF789484B5826084BD86
:1012800084B5816084BD85B5826085BD85B581608A
:1012900085BD80916E00816080936E001092810008
:1012A00080918100826080938100809181008160C3
:1012B0008093810080918000816080938000809184
:1012C000B10084608093B1008091B0008160809310
:1012D000B00080917A00846080937A0080917A00D7
:1012E000826080937A0080917A00816080937A0096
:1012F00080917A00806880937A001092C1008DE01E
:101300000E94F100E0917002F091710282E080830E
:10131000E0916C02F0916D021082E0916E02F0910A
:101320006F028FEC808310927802E0917402F0914A
:10133000750286E08083E0917202F09173028081F1
:1013400080618083E0917202F091730280818860F5
:101350008083E0917202F0917302808180688083C3
:10136000E0917202F091730280818F7D80831092F0
:1013700057021092560210925502109254020E9487
:101380002A0380E191E0909353028093520281E11D
:1013900091E0909351028093500210923303809118
:1013A0003703823018F098E090933303909138031C
:1013B000992339F0813029F480913303846080933C
:1013C000330362E370E080E090E00E94C402609129
:1013D00039038EE293E00E94EF0368EE73E080E051
:1013E00090E00E94C40260E38EE293E00E94D90480
:1013F000CBE4D6E4CE010197F1F760E38EE293E00F
:101400000E94D9042197F1F760E38EE293E00E94F5
:10141000D90483E592E00197F1F760E28EE293E070
:101420000E94D90460913303606240E08EE293E051
:101430000E94F20484E08093340340E06CE08EE28A
:1014400093E00E94F2040E94090582E08093350334
:1014500040E066E08EE293E00E94F20440E062E049
:101460008EE293E00E94F2048BE39FE10197F1F793
:1014700088E08093390360E08EE293E00E94EF03FE
:1014800080913A038C3008F050C089E00E94F1004E
:1014900080913A03282F30E0F901EE0FFF1FE20F91
:1014A000F31FE75FFC4F9081907C996090831092CE
:1014B0003B0310923C032CE0622F0E943A0C829F67
:1014C000B001112430E020E0AB01420F531FFA01BC
:1014D000EE0FFF1FE40FF51FE75FFC4F908196FDB5
:1014E00016C02F5F3F4F2C30310571F781110FC0AF
:1014F0001092800082E0809381001092850010920B
:101500008400B19A80916F00826080936F00E091B7
:101510003A038E2F90E0FC01EE0FFF1FE80FF91F3A
:10152000E75FFC4F80818064808390E080E00E94D0
:101530008C0068E273E280E090E00E94C4020E94A6
:1015400009056FE371E08EE293E00E94E50500E09B
:1015500010E08BE3E82EF12C0E94F60280905C02F2
:1015600090905D02A0905E02B0905F029B01AC0182
:10157000281939094A095B0949015A0138EE8316CD
:1015800033E09306A104B10410F160935C02709300
:101590005D0280935E0290935F02809103019091BF
:1015A0000401892B09F0D5C08091010190910201BD
:1015B000009709F0C5C00E94090560E084E00E9420
:1015C0001A0567E471E08EE293E00E94E5050E944F
:1015D000F6024B015C010E94F6020E94F602809125
:1015E000580290915902A0915A02B0915B02A50154
:1015F0009401281B390B4A0B5B0BDA01C901D0E0BF
:10160000C0E080319742A105B10508F44EC0809238
:10161000580290925902A0925A02B0925B0265E57C
:1016200071E080E692E00E94E50569E771E080E6FE
:1016300092E00E94E5056DE371E080E692E00E9491
:101640004D056BE571E080E692E00E94E50590E0D3
:1016500080E00E948C0061E671E080E692E00E94EA
:10166000E5056DE371E080E692E00E944D056CEACD
:101670007DE080E090E00E94C40284EB90E00E9454
:101680008C006BE571E080E692E00E94E50569E67A
:1016900071E080E692E00E94E5056DE371E080E68E
:1016A00092E00E944D05C1E0D0E082E00E94480235
:1016B000019759F4C130D10541F483E791E00E94CC
:1016C000D20581E090E00E94E70583E00E94480295
:1016D000019759F4C130D10541F48BE791E00E94A4
:1016E000D20582E090E00E94E70584E00E94480273
:1016F000019759F4C130D10541F483E891E00E948B
:10170000D20583E090E00E94E70585E00E94480250
:10171000019751F4219741F48BE891E00E94D205A2
:1017200084E090E00E94E7050115110509F414CF4B
:101730000E947C01882309F40FCF0E9400000CCF87
:10174000F0920401E09203010197909302018093CB
:101750000101C0900101D0900201C0910301D0911C
:1017600004012197D0930401C093030160E084E059
:101770000E941A0560E571E08EE293E00E94E505A3
:1017800060E089E00E941A05B601DD0C880B990B18
:101790000E945C0541E06AE38EE293E00E94F2045D
:1017A000BE01DD0F880B990B0E945C0510CF052E42
:1017B00097FB1EF400940E94EE0B57FD07D00E9489
:1017C000090C07FC03D04EF40C94EE0B5095409599
:1017D000309521953F4F4F4F5F4F089590958095DD
:1017E000709561957F4F8F4F9F4F08950E942B0CEE
:1017F000A59F900DB49F900DA49F800D911D112465
:101800000895B7FF0C94F60B0E94F60B821B930B06
:101810000895A1E21A2EAA1BBB1BFD010DC0AA1F31
:10182000BB1FEE1FFF1FA217B307E407F50720F049
:10183000A21BB30BE40BF50B661F771F881F991FC4
:101840001A9469F760957095809590959B01AC010D
:10185000BD01CF010895A29FB001B39FC001A39F16
:10186000700D811D1124911DB29F700D811D1124D9
:10187000911D0895991B79E004C0991F961708F0EF
:10188000961B881F7A95C9F780950895EE0FFF1F64
:101890000590F491E02D0994F894FFCF0102000A1D
:1018A00000000040001400540000000000B20112CB
:1018B000013F01FF0170014E01620100000000C004
:1018C000039303D60469038C0379036A03000000C1
:1018D0000014051201D60402030D0A004641494CCA
:1018E00045440046494E49534845440054696D6596
:1018F00000535045414B004D4F544F520020616EF4
:10190000676C65300020616E676C65313830004669
:1019100041494C455031004641494C455032004602
:1019200041494C455033004641494C455034000034
:107E0000112484B714BE81FFF0D085E080938100F7
:107E100082E08093C00088E18093C10086E0809377
:107E2000C20080E18093C4008EE0C9D0259A86E02C
:107E300020E33CEF91E0309385002093840096BBD3
:107E4000B09BFECF1D9AA8958150A9F7CC24DD24C4
:107E500088248394B5E0AB2EA1E19A2EF3E0BF2EE7
:107E6000A2D0813461F49FD0082FAFD0023811F036
:107E7000013811F484E001C083E08DD089C08234E0
:107E800011F484E103C0853419F485E0A6D080C0E4
:107E9000853579F488D0E82EFF2485D0082F10E0AE
:107EA000102F00270E291F29000F111F8ED06801E7
:107EB0006FC0863521F484E090D080E0DECF843638
:107EC00009F040C070D06FD0082F6DD080E0C81688
:107ED00080E7D80618F4F601B7BEE895C0E0D1E017
:107EE00062D089930C17E1F7F0E0CF16F0E7DF06D8
:107EF00018F0F601B7BEE89568D007B600FCFDCFD4
:107F0000A601A0E0B1E02C9130E011968C91119780
:107F100090E0982F8827822B932B1296FA010C0160
:107F200087BEE89511244E5F5F4FF1E0A038BF0790
:107F300051F7F601A7BEE89507B600FCFDCF97BE46
:107F4000E89526C08437B1F42ED02DD0F82E2BD052
:107F50003CD0F601EF2C8F010F5F1F4F84911BD097
:107F6000EA94F801C1F70894C11CD11CFA94CF0C13
:107F7000D11C0EC0853739F428D08EE10CD085E9AC
:107F80000AD08FE07ACF813511F488E018D01DD067
:107F900080E101D065CF982F8091C00085FFFCCF94
:107FA0009093C60008958091C00087FFFCCF809118
:107FB000C00084FD01C0A8958091C6000895E0E648
:107FC000F0E098E1908380830895EDDF803219F02E
:107FD00088E0F5DFFFCF84E1DECF1F93182FE3DFCA
:107FE0001150E9F7F2DF1F91089580E0E8DFEE27F6
:047FF000FF270994CA
:027FFE00040479
:00000001FF
